:020000040000FA
:020000003428A2
:02000800A92825
:10004000FF3FFF3FFF3FFF3FFF3FFF3FFF3FFF3FC0
:10005000FF3FFF3FFF3FFF3FFF3FFF3FFF3FFF3FB0
:10006000FF3FFF3FFF3FFF3F831603130030880031
:10007000003085003F30860006309F00003087004A
:1000800083120313880185018601A201A301A40143
:10009000A501A901AA018312031331309000831630
:1000A00003130C14831203130B178B178E018F018C
:1000B000AB01AC01A801AD01AE01AF01B001B201CD
:1000C000B301B10130217F2001308A0040218A0133
:1000D00002308A0000228A0103308A0000238A014C
:1000E0008723622882073F3406345B344F346634FA
:1000F0006D347D3407347F346734003408000310D6
:10010000220C0A3A031D8628A201A30A2308063AF4
:10011000031D8C28A301A40A24080A3A031D92286F
:10012000A401A50A2508063A031D9828A501A60AD8
:100130002708023A031DA2282608043A031DA22814
:10014000A601A70126080A3A031DA828A601A70AA6
:100150000800A900030EAA000C102C08003A031D89
:10016000B228A20A0000000000000B308F00DE3031
:100170008E000130AB062A0E8300A90E290E09005D
:10018000031085122508722088000515222105110B
:1001900024087220880085152B1C88132B188817BB
:1001A00022218511230872208800051622210310C0
:1001B0000512220C722088008516AB1C8813AB1820
:0601C0008817222108004F
:100200000310851227087220880005152221051188
:1002100026087220880085152B1C88132B18881738
:100220002221851125087220880005162221051239
:100230002408722088008516AB1C8813AB18881719
:1002400022210800F430A1000230A00000000000CC
:10025000000000000000A1030319A00B26290800DC
:100260002C08003A031935295D292808003A031D96
:100270003A2900292808013A031D3F29C02808000F
:1002800006184929061C4229AC0A2C08093A031908
:10029000AC01013086194F29861D4C29A806013072
:1002A000861A5729861E5229B3060230AB06061A53
:1002B0005C29061E59293110080085120512851186
:1002C000051103102C08013A031D6D298512051232
:1002D000851105152708722088002C08023A031D95
:1002E00078298512051205112608722088008515C7
:1002F0002C08033A031D8329851205118511250851
:100300007220880005162C08043A031D8E29051159
:100310008511051224087220880085162C08053ADC
:10032000031D9A29051185120512851105152D0841
:10033000722088002C08063A031DA5298512051293
:1003400005112E087220880085152C08073A031D18
:10035000B0298512051185112F0872208800051615
:100360002C08083A031DBB29051185110512300818
:080370007220880085160800C8
:1004000003102C08013A031D202A0619202A061D74
:10041000072A2708023A031D0E2A202A2608033A33
:1004200003191F2A2608023A03191F2A2608013A2F
:1004300003191F2A2608003A03191F2AA601A70A32
:100440002C08023A031D342A0619342A061D262ACE
:100450002708023A031D302A2608033A0319342AD2
:100460002608093A031DA60A2C08033A031D402A50
:100470000619402A061D3A2A2508053A031DA50A31
:100480002C08043A031D4C2A06194C2A061D462A3C
:100490002408093A031DA40A2C08013A031D582A0E
:1004A0008618582A861C522A2708003A031DA703DB
:1004B0002C08023A031D6C2A86186C2A861C5E2AB8
:1004C0002708023A031D682A2608003A03196C2AF5
:1004D0002608003A031DA6032C08033A031D782AB8
:1004E0008618782A861C722A2508003A031DA5035F
:1004F0002C08043A031D842A8618842A861C7E2A26
:0A0500002408003A031DA4030800BC
:100600000310061186102C08053A031D222B06192B
:10061000222B061D092B2D08023A031D102B222B1D
:100620002E08033A0319212B2E08023A0319212B15
:100630002E08013A0319212B2E08003A0319212B09
:10064000AE01AD0A2C08063A031D362B0619362BCF
:10065000061D282B2D08023A031D322B2E08033AC3
:100660000319362B2E08093A031DAE0A2C08073A47
:10067000031D422B0619422B061D3C2B2F08053A61
:10068000031DAF0A2C08083A031D4E2B06194E2BEA
:10069000061D482B3008093A031DB00A2C08053AFC
:1006A000031D5A2B86185A2B861C542B2D08003AF2
:1006B000031DAD032C08063A031D6E2B86186E2B06
:1006C000861C602B2D08023A031D6A2B2E08003A67
:1006D00003196E2B2E08003A031DAE032C08073AAF
:1006E000031D7A2B86187A2B861C742B2F08003A50
:1006F000031DAF032C08083A031D862B8618862B92
:10070000861C802B3008003A031DB0030800330814
:10071000003A031D8F2B0613B2018710BC2B330840
:10072000013A031DB32BB201061727082D06031D3E
:10073000A92BB20A26082E06031DA92BB20A2508EA
:100740002F06031DA92BB20A24083006031DA92B6E
:10075000B20A23080006031DAE2BB20A22080006C7
:10076000031DB32BB20A3208063A031DB82B31140D
:0A077000311C8710311887140800AF
:02400E00323F3F
:00000001FF
